{
  "_format": "hh-sol-artifact-1",
  "contractName": "Escrow",
  "sourceName": "contracts/Escrow.sol",
  "abi": [
    {
      "inputs": [
        {
          "internalType": "uint256",
          "name": "",
          "type": "uint256"
        }
      ],
      "name": "agreements",
      "outputs": [
        {
          "internalType": "address",
          "name": "bob",
          "type": "address"
        },
        {
          "internalType": "address",
          "name": "alice",
          "type": "address"
        },
        {
          "internalType": "address",
          "name": "arbitrator",
          "type": "address"
        },
        {
          "internalType": "uint256",
          "name": "bobExpectedAmount",
          "type": "uint256"
        },
        {
          "internalType": "uint256",
          "name": "aliceExpectedAmount",
          "type": "uint256"
        },
        {
          "internalType": "bool",
          "name": "bobIn",
          "type": "bool"
        },
        {
          "internalType": "bool",
          "name": "aliceIn",
          "type": "bool"
        },
        {
          "internalType": "bool",
          "name": "completed",
          "type": "bool"
        }
      ],
      "stateMutability": "view",
      "type": "function"
    },
    {
      "inputs": [
        {
          "internalType": "uint256",
          "name": "_id",
          "type": "uint256"
        }
      ],
      "name": "complete",
      "outputs": [],
      "stateMutability": "payable",
      "type": "function"
    },
    {
      "inputs": [
        {
          "internalType": "uint256",
          "name": "_id",
          "type": "uint256"
        }
      ],
      "name": "deposit",
      "outputs": [],
      "stateMutability": "payable",
      "type": "function"
    },
    {
      "inputs": [
        {
          "internalType": "uint256",
          "name": "index",
          "type": "uint256"
        }
      ],
      "name": "getAgreement",
      "outputs": [
        {
          "internalType": "address",
          "name": "bob",
          "type": "address"
        },
        {
          "internalType": "address",
          "name": "alice",
          "type": "address"
        },
        {
          "internalType": "address",
          "name": "arbitrator",
          "type": "address"
        },
        {
          "internalType": "uint256",
          "name": "bobExpectedAmount",
          "type": "uint256"
        },
        {
          "internalType": "uint256",
          "name": "aliceExpectedAmount",
          "type": "uint256"
        },
        {
          "internalType": "bool",
          "name": "bobIn",
          "type": "bool"
        },
        {
          "internalType": "bool",
          "name": "aliceIn",
          "type": "bool"
        },
        {
          "internalType": "bool",
          "name": "completed",
          "type": "bool"
        }
      ],
      "stateMutability": "view",
      "type": "function"
    },
    {
      "inputs": [
        {
          "internalType": "address",
          "name": "_bob",
          "type": "address"
        },
        {
          "internalType": "address",
          "name": "_alice",
          "type": "address"
        },
        {
          "internalType": "uint256",
          "name": "_bobExpectedAmount",
          "type": "uint256"
        },
        {
          "internalType": "uint256",
          "name": "_aliceExpectedAmount",
          "type": "uint256"
        }
      ],
      "name": "newAgreement",
      "outputs": [
        {
          "internalType": "uint256",
          "name": "",
          "type": "uint256"
        }
      ],
      "stateMutability": "nonpayable",
      "type": "function"
    },
    {
      "inputs": [
        {
          "internalType": "uint256",
          "name": "_id",
          "type": "uint256"
        }
      ],
      "name": "refund",
      "outputs": [],
      "stateMutability": "payable",
      "type": "function"
    }
  ],
  "bytecode": "0x608060405234801561001057600080fd5b506116d3806100206000396000f3fe6080604052600436106100555760003560e01c8063278ecde11461005a5780634f9f6fe614610076578063971d852f146100ba57806399d07819146100d6578063b6b55f2514610113578063bd14de961461012f575b600080fd5b610074600480360381019061006f91906110f6565b610173565b005b34801561008257600080fd5b5061009d600480360381019061009891906110f6565b6104ea565b6040516100b198979695949392919061118e565b60405180910390f35b6100d460048036038101906100cf91906110f6565b6105e6565b005b3480156100e257600080fd5b506100fd60048036038101906100f89190611238565b6109ae565b60405161010a919061129f565b60405180910390f35b61012d600480360381019061012891906110f6565b610c35565b005b34801561013b57600080fd5b50610156600480360381019061015191906110f6565b610fdc565b60405161016a98979695949392919061118e565b60405180910390f35b60008181548110610187576101866112ba565b5b906000526020600020906006020160000160009054906101000a900473ffffffffffffffffffffffffffffffffffffffff1673ffffffffffffffffffffffffffffffffffffffff163373ffffffffffffffffffffffffffffffffffffffff16148015610217575060008181548110610202576102016112ba565b5b90600052602060002090600602016004015434145b1561030f576000808281548110610231576102306112ba565b5b906000526020600020906006020160050160006101000a81548160ff0219169083151502179055506000818154811061026d5761026c6112ba565b5b906000526020600020906006020160000160009054906101000a900473ffffffffffffffffffffffffffffffffffffffff1673ffffffffffffffffffffffffffffffffffffffff166108fc600083815481106102cc576102cb6112ba565b5b9060005260206000209060060201600401549081150290604051600060405180830381858888f19350505050158015610309573d6000803e3d6000fd5b506104e7565b60008181548110610323576103226112ba565b5b906000526020600020906006020160010160009054906101000a900473ffffffffffffffffffffffffffffffffffffffff1673ffffffffffffffffffffffffffffffffffffffff163373ffffffffffffffffffffffffffffffffffffffff161480156103b357506000818154811061039e5761039d6112ba565b5b90600052602060002090600602016003015434145b156104ab5760008082815481106103cd576103cc6112ba565b5b906000526020600020906006020160050160016101000a81548160ff02191690831515021790555060008181548110610409576104086112ba565b5b906000526020600020906006020160010160009054906101000a900473ffffffffffffffffffffffffffffffffffffffff1673ffffffffffffffffffffffffffffffffffffffff166108fc60008381548110610468576104676112ba565b5b9060005260206000209060060201600301549081150290604051600060405180830381858888f193505050501580156104a5573d6000803e3d6000fd5b506104e6565b6040517f08c379a00000000000000000000000000000000000000000000000000000000081526004016104dd90611346565b60405180910390fd5b5b50565b6000806000806000806000806000808a8154811061050b5761050a6112ba565b5b906000526020600020906006020190508060000160009054906101000a900473ffffffffffffffffffffffffffffffffffffffff168160010160009054906101000a900473ffffffffffffffffffffffffffffffffffffffff168260020160009054906101000a900473ffffffffffffffffffffffffffffffffffffffff16836003015484600401548560050160009054906101000a900460ff168660050160019054906101000a900460ff168760050160029054906101000a900460ff169850985098509850985098509850985050919395975091939597565b600081815481106105fa576105f96112ba565b5b906000526020600020906006020160020160009054906101000a900473ffffffffffffffffffffffffffffffffffffffff1673ffffffffffffffffffffffffffffffffffffffff163373ffffffffffffffffffffffffffffffffffffffff1614610699576040517f08c379a0000000000000000000000000000000000000000000000000000000008152600401610690906113b2565b60405180910390fd5b6001600082815481106106af576106ae6112ba565b5b906000526020600020906006020160050160006101000a81548160ff0219169083151502179055610715576040517f08c379a000000000000000000000000000000000000000000000000000000000815260040161070c9061141e565b60405180910390fd5b60016000828154811061072b5761072a6112ba565b5b906000526020600020906006020160050160016101000a81548160ff0219169083151502179055610791576040517f08c379a00000000000000000000000000000000000000000000000000000000081526004016107889061148a565b60405180910390fd5b600081815481106107a5576107a46112ba565b5b906000526020600020906006020160000160009054906101000a900473ffffffffffffffffffffffffffffffffffffffff1673ffffffffffffffffffffffffffffffffffffffff166108fc60008381548110610804576108036112ba565b5b9060005260206000209060060201600401549081150290604051600060405180830381858888f19350505050158015610841573d6000803e3d6000fd5b5060008181548110610856576108556112ba565b5b906000526020600020906006020160010160009054906101000a900473ffffffffffffffffffffffffffffffffffffffff1673ffffffffffffffffffffffffffffffffffffffff166108fc600083815481106108b5576108b46112ba565b5b9060005260206000209060060201600301549081150290604051600060405180830381858888f193505050501580156108f2573d6000803e3d6000fd5b506000808281548110610908576109076112ba565b5b906000526020600020906006020160050160006101000a81548160ff0219169083151502179055506000808281548110610945576109446112ba565b5b906000526020600020906006020160050160016101000a81548160ff021916908315150217905550600160008281548110610983576109826112ba565b5b906000526020600020906006020160050160026101000a81548160ff02191690831515021790555050565b60008373ffffffffffffffffffffffffffffffffffffffff168573ffffffffffffffffffffffffffffffffffffffff1603610a1e576040517f08c379a0000000000000000000000000000000000000000000000000000000008152600401610a15906114f6565b60405180910390fd5b60006040518061010001604052808773ffffffffffffffffffffffffffffffffffffffff1681526020018673ffffffffffffffffffffffffffffffffffffffff1681526020013373ffffffffffffffffffffffffffffffffffffffff16815260200185815260200184815260200160001515815260200160001515815260200160001515815250908060018154018082558091505060019003906000526020600020906006020160009091909190915060008201518160000160006101000a81548173ffffffffffffffffffffffffffffffffffffffff021916908373ffffffffffffffffffffffffffffffffffffffff16021790555060208201518160010160006101000a81548173ffffffffffffffffffffffffffffffffffffffff021916908373ffffffffffffffffffffffffffffffffffffffff16021790555060408201518160020160006101000a81548173ffffffffffffffffffffffffffffffffffffffff021916908373ffffffffffffffffffffffffffffffffffffffff160217905550606082015181600301556080820151816004015560a08201518160050160006101000a81548160ff02191690831515021790555060c08201518160050160016101000a81548160ff02191690831515021790555060e08201518160050160026101000a81548160ff02191690831515021790555050506001600080549050610c2b9190611545565b9050949350505050565b60008181548110610c4957610c486112ba565b5b906000526020600020906006020160000160009054906101000a900473ffffffffffffffffffffffffffffffffffffffff1673ffffffffffffffffffffffffffffffffffffffff163373ffffffffffffffffffffffffffffffffffffffff16148015610cd9575060008181548110610cc457610cc36112ba565b5b90600052602060002090600602016004015434145b15610d2157600160008281548110610cf457610cf36112ba565b5b906000526020600020906006020160050160006101000a81548160ff021916908315150217905550610fd9565b60008181548110610d3557610d346112ba565b5b906000526020600020906006020160000160009054906101000a900473ffffffffffffffffffffffffffffffffffffffff1673ffffffffffffffffffffffffffffffffffffffff163373ffffffffffffffffffffffffffffffffffffffff16148015610dc6575060008181548110610db057610daf6112ba565b5b9060005260206000209060060201600401543414155b15610e06576040517f08c379a0000000000000000000000000000000000000000000000000000000008152600401610dfd906115eb565b60405180910390fd5b60008181548110610e1a57610e196112ba565b5b906000526020600020906006020160010160009054906101000a900473ffffffffffffffffffffffffffffffffffffffff1673ffffffffffffffffffffffffffffffffffffffff163373ffffffffffffffffffffffffffffffffffffffff16148015610eaa575060008181548110610e9557610e946112ba565b5b90600052602060002090600602016003015434145b15610ef257600160008281548110610ec557610ec46112ba565b5b906000526020600020906006020160050160016101000a81548160ff021916908315150217905550610fd8565b60008181548110610f0657610f056112ba565b5b906000526020600020906006020160010160009054906101000a900473ffffffffffffffffffffffffffffffffffffffff1673ffffffffffffffffffffffffffffffffffffffff163373ffffffffffffffffffffffffffffffffffffffff16148015610f97575060008181548110610f8157610f806112ba565b5b9060005260206000209060060201600301543414155b15610fd7576040517f08c379a0000000000000000000000000000000000000000000000000000000008152600401610fce9061167d565b60405180910390fd5b5b5b50565b60008181548110610fec57600080fd5b90600052602060002090600602016000915090508060000160009054906101000a900473ffffffffffffffffffffffffffffffffffffffff16908060010160009054906101000a900473ffffffffffffffffffffffffffffffffffffffff16908060020160009054906101000a900473ffffffffffffffffffffffffffffffffffffffff16908060030154908060040154908060050160009054906101000a900460ff16908060050160019054906101000a900460ff16908060050160029054906101000a900460ff16905088565b600080fd5b6000819050919050565b6110d3816110c0565b81146110de57600080fd5b50565b6000813590506110f0816110ca565b92915050565b60006020828403121561110c5761110b6110bb565b5b600061111a848285016110e1565b91505092915050565b600073ffffffffffffffffffffffffffffffffffffffff82169050919050565b600061114e82611123565b9050919050565b61115e81611143565b82525050565b61116d816110c0565b82525050565b60008115159050919050565b61118881611173565b82525050565b6000610100820190506111a4600083018b611155565b6111b1602083018a611155565b6111be6040830189611155565b6111cb6060830188611164565b6111d86080830187611164565b6111e560a083018661117f565b6111f260c083018561117f565b6111ff60e083018461117f565b9998505050505050505050565b61121581611143565b811461122057600080fd5b50565b6000813590506112328161120c565b92915050565b60008060008060808587031215611252576112516110bb565b5b600061126087828801611223565b945050602061127187828801611223565b9350506040611282878288016110e1565b9250506060611293878288016110e1565b91505092959194509250565b60006020820190506112b46000830184611164565b92915050565b7f4e487b7100000000000000000000000000000000000000000000000000000000600052603260045260246000fd5b600082825260208201905092915050565b7f496e76616c696420726566756e64000000000000000000000000000000000000600082015250565b6000611330600e836112e9565b915061133b826112fa565b602082019050919050565b6000602082019050818103600083015261135f81611323565b9050919050565b7f4f6e6c792061726269747261746f722063616e20636f6d706c65746500000000600082015250565b600061139c601c836112e9565b91506113a782611366565b602082019050919050565b600060208201905081810360008301526113cb8161138f565b9050919050565b7f426f6220686173206e6f74207061696400000000000000000000000000000000600082015250565b60006114086010836112e9565b9150611413826113d2565b602082019050919050565b60006020820190508181036000830152611437816113fb565b9050919050565b7f416c69636520686173206e6f7420706169640000000000000000000000000000600082015250565b60006114746012836112e9565b915061147f8261143e565b602082019050919050565b600060208201905081810360008301526114a381611467565b9050919050565b7f73616d6520627579657220616e642073656c6c65720000000000000000000000600082015250565b60006114e06015836112e9565b91506114eb826114aa565b602082019050919050565b6000602082019050818103600083015261150f816114d3565b9050919050565b7f4e487b7100000000000000000000000000000000000000000000000000000000600052601160045260246000fd5b6000611550826110c0565b915061155b836110c0565b925082820390508181111561157357611572611516565b5b92915050565b7f426f6220686173206e6f742070616964207768617420416c696365206578706560008201527f6374656400000000000000000000000000000000000000000000000000000000602082015250565b60006115d56024836112e9565b91506115e082611579565b604082019050919050565b60006020820190508181036000830152611604816115c8565b9050919050565b7f416c69636520686173206e6f742070616964207768617420426f62206578706560008201527f6374656400000000000000000000000000000000000000000000000000000000602082015250565b60006116676024836112e9565b91506116728261160b565b604082019050919050565b600060208201905081810360008301526116968161165a565b905091905056fea26469706673582212203151ba252e5827d0c31b1a22d5e3a07f677b44a974b8e4d6b6397f922898feea64736f6c63430008180033",
  "linkReferences": {},
  "deployedLinkReferences": {}
}