{
  "_format": "hh-sol-artifact-1",
  "contractName": "Escrow",
  "sourceName": "contracts/Escrow.sol",
  "abi": [
    {
      "inputs": [
        {
          "internalType": "uint256",
          "name": "",
          "type": "uint256"
        }
      ],
      "name": "agreements",
      "outputs": [
        {
          "internalType": "address",
          "name": "bob",
          "type": "address"
        },
        {
          "internalType": "address",
          "name": "alice",
          "type": "address"
        },
        {
          "internalType": "address",
          "name": "arbitrator",
          "type": "address"
        },
        {
          "internalType": "uint256",
          "name": "bobExpectedAmount",
          "type": "uint256"
        },
        {
          "internalType": "uint256",
          "name": "aliceExpectedAmount",
          "type": "uint256"
        },
        {
          "internalType": "bool",
          "name": "bobIn",
          "type": "bool"
        },
        {
          "internalType": "bool",
          "name": "aliceIn",
          "type": "bool"
        }
      ],
      "stateMutability": "view",
      "type": "function"
    },
    {
      "inputs": [
        {
          "internalType": "uint256",
          "name": "_id",
          "type": "uint256"
        }
      ],
      "name": "complete",
      "outputs": [],
      "stateMutability": "nonpayable",
      "type": "function"
    },
    {
      "inputs": [
        {
          "internalType": "uint256",
          "name": "_id",
          "type": "uint256"
        }
      ],
      "name": "deposit",
      "outputs": [],
      "stateMutability": "payable",
      "type": "function"
    },
    {
      "inputs": [
        {
          "internalType": "address",
          "name": "_bob",
          "type": "address"
        },
        {
          "internalType": "address",
          "name": "_alice",
          "type": "address"
        },
        {
          "internalType": "uint256",
          "name": "_bobExpectedAmount",
          "type": "uint256"
        },
        {
          "internalType": "uint256",
          "name": "_aliceExpectedAmount",
          "type": "uint256"
        }
      ],
      "name": "newAgreement",
      "outputs": [
        {
          "internalType": "uint256",
          "name": "",
          "type": "uint256"
        }
      ],
      "stateMutability": "nonpayable",
      "type": "function"
    },
    {
      "inputs": [
        {
          "internalType": "uint256",
          "name": "_id",
          "type": "uint256"
        }
      ],
      "name": "refund",
      "outputs": [],
      "stateMutability": "payable",
      "type": "function"
    }
  ],
  "bytecode": "0x608060405234801561001057600080fd5b5061150a806100206000396000f3fe60806040526004361061004a5760003560e01c8063278ecde11461004f578063971d852f1461006b57806399d0781914610094578063b6b55f25146100d1578063bd14de96146100ed575b600080fd5b61006960048036038101906100649190610f3c565b610130565b005b34801561007757600080fd5b50610092600480360381019061008d9190610f3c565b6104a7565b005b3480156100a057600080fd5b506100bb60048036038101906100b69190610fc7565b610831565b6040516100c8919061103d565b60405180910390f35b6100eb60048036038101906100e69190610f3c565b610a8e565b005b3480156100f957600080fd5b50610114600480360381019061010f9190610f3c565b610e35565b6040516101279796959493929190611082565b60405180910390f35b60008181548110610144576101436110f1565b5b906000526020600020906006020160000160009054906101000a900473ffffffffffffffffffffffffffffffffffffffff1673ffffffffffffffffffffffffffffffffffffffff163373ffffffffffffffffffffffffffffffffffffffff161480156101d45750600081815481106101bf576101be6110f1565b5b90600052602060002090600602016004015434145b156102cc5760008082815481106101ee576101ed6110f1565b5b906000526020600020906006020160050160006101000a81548160ff0219169083151502179055506000818154811061022a576102296110f1565b5b906000526020600020906006020160000160009054906101000a900473ffffffffffffffffffffffffffffffffffffffff1673ffffffffffffffffffffffffffffffffffffffff166108fc60008381548110610289576102886110f1565b5b9060005260206000209060060201600401549081150290604051600060405180830381858888f193505050501580156102c6573d6000803e3d6000fd5b506104a4565b600081815481106102e0576102df6110f1565b5b906000526020600020906006020160010160009054906101000a900473ffffffffffffffffffffffffffffffffffffffff1673ffffffffffffffffffffffffffffffffffffffff163373ffffffffffffffffffffffffffffffffffffffff1614801561037057506000818154811061035b5761035a6110f1565b5b90600052602060002090600602016003015434145b1561046857600080828154811061038a576103896110f1565b5b906000526020600020906006020160050160016101000a81548160ff021916908315150217905550600081815481106103c6576103c56110f1565b5b906000526020600020906006020160010160009054906101000a900473ffffffffffffffffffffffffffffffffffffffff1673ffffffffffffffffffffffffffffffffffffffff166108fc60008381548110610425576104246110f1565b5b9060005260206000209060060201600301549081150290604051600060405180830381858888f19350505050158015610462573d6000803e3d6000fd5b506104a3565b6040517f08c379a000000000000000000000000000000000000000000000000000000000815260040161049a9061117d565b60405180910390fd5b5b50565b600081815481106104bb576104ba6110f1565b5b906000526020600020906006020160020160009054906101000a900473ffffffffffffffffffffffffffffffffffffffff1673ffffffffffffffffffffffffffffffffffffffff163373ffffffffffffffffffffffffffffffffffffffff161461055a576040517f08c379a0000000000000000000000000000000000000000000000000000000008152600401610551906111e9565b60405180910390fd5b6001600082815481106105705761056f6110f1565b5b906000526020600020906006020160050160006101000a81548160ff02191690831515021790556105d6576040517f08c379a00000000000000000000000000000000000000000000000000000000081526004016105cd90611255565b60405180910390fd5b6001600082815481106105ec576105eb6110f1565b5b906000526020600020906006020160050160016101000a81548160ff0219169083151502179055610652576040517f08c379a0000000000000000000000000000000000000000000000000000000008152600401610649906112c1565b60405180910390fd5b60008181548110610666576106656110f1565b5b906000526020600020906006020160000160009054906101000a900473ffffffffffffffffffffffffffffffffffffffff1673ffffffffffffffffffffffffffffffffffffffff166108fc600083815481106106c5576106c46110f1565b5b9060005260206000209060060201600401549081150290604051600060405180830381858888f19350505050158015610702573d6000803e3d6000fd5b5060008181548110610717576107166110f1565b5b906000526020600020906006020160010160009054906101000a900473ffffffffffffffffffffffffffffffffffffffff1673ffffffffffffffffffffffffffffffffffffffff166108fc60008381548110610776576107756110f1565b5b9060005260206000209060060201600301549081150290604051600060405180830381858888f193505050501580156107b3573d6000803e3d6000fd5b5060008082815481106107c9576107c86110f1565b5b906000526020600020906006020160050160006101000a81548160ff0219169083151502179055506000808281548110610806576108056110f1565b5b906000526020600020906006020160050160016101000a81548160ff02191690831515021790555050565b60008373ffffffffffffffffffffffffffffffffffffffff168573ffffffffffffffffffffffffffffffffffffffff16036108a1576040517f08c379a00000000000000000000000000000000000000000000000000000000081526004016108989061132d565b60405180910390fd5b60006040518060e001604052808773ffffffffffffffffffffffffffffffffffffffff1681526020018673ffffffffffffffffffffffffffffffffffffffff1681526020013373ffffffffffffffffffffffffffffffffffffffff16815260200185815260200184815260200160001515815260200160001515815250908060018154018082558091505060019003906000526020600020906006020160009091909190915060008201518160000160006101000a81548173ffffffffffffffffffffffffffffffffffffffff021916908373ffffffffffffffffffffffffffffffffffffffff16021790555060208201518160010160006101000a81548173ffffffffffffffffffffffffffffffffffffffff021916908373ffffffffffffffffffffffffffffffffffffffff16021790555060408201518160020160006101000a81548173ffffffffffffffffffffffffffffffffffffffff021916908373ffffffffffffffffffffffffffffffffffffffff160217905550606082015181600301556080820151816004015560a08201518160050160006101000a81548160ff02191690831515021790555060c08201518160050160016101000a81548160ff02191690831515021790555050506001600080549050610a84919061137c565b9050949350505050565b60008181548110610aa257610aa16110f1565b5b906000526020600020906006020160000160009054906101000a900473ffffffffffffffffffffffffffffffffffffffff1673ffffffffffffffffffffffffffffffffffffffff163373ffffffffffffffffffffffffffffffffffffffff16148015610b32575060008181548110610b1d57610b1c6110f1565b5b90600052602060002090600602016004015434145b15610b7a57600160008281548110610b4d57610b4c6110f1565b5b906000526020600020906006020160050160006101000a81548160ff021916908315150217905550610e32565b60008181548110610b8e57610b8d6110f1565b5b906000526020600020906006020160000160009054906101000a900473ffffffffffffffffffffffffffffffffffffffff1673ffffffffffffffffffffffffffffffffffffffff163373ffffffffffffffffffffffffffffffffffffffff16148015610c1f575060008181548110610c0957610c086110f1565b5b9060005260206000209060060201600401543414155b15610c5f576040517f08c379a0000000000000000000000000000000000000000000000000000000008152600401610c5690611422565b60405180910390fd5b60008181548110610c7357610c726110f1565b5b906000526020600020906006020160010160009054906101000a900473ffffffffffffffffffffffffffffffffffffffff1673ffffffffffffffffffffffffffffffffffffffff163373ffffffffffffffffffffffffffffffffffffffff16148015610d03575060008181548110610cee57610ced6110f1565b5b90600052602060002090600602016003015434145b15610d4b57600160008281548110610d1e57610d1d6110f1565b5b906000526020600020906006020160050160016101000a81548160ff021916908315150217905550610e31565b60008181548110610d5f57610d5e6110f1565b5b906000526020600020906006020160010160009054906101000a900473ffffffffffffffffffffffffffffffffffffffff1673ffffffffffffffffffffffffffffffffffffffff163373ffffffffffffffffffffffffffffffffffffffff16148015610df0575060008181548110610dda57610dd96110f1565b5b9060005260206000209060060201600301543414155b15610e30576040517f08c379a0000000000000000000000000000000000000000000000000000000008152600401610e27906114b4565b60405180910390fd5b5b5b50565b60008181548110610e4557600080fd5b90600052602060002090600602016000915090508060000160009054906101000a900473ffffffffffffffffffffffffffffffffffffffff16908060010160009054906101000a900473ffffffffffffffffffffffffffffffffffffffff16908060020160009054906101000a900473ffffffffffffffffffffffffffffffffffffffff16908060030154908060040154908060050160009054906101000a900460ff16908060050160019054906101000a900460ff16905087565b600080fd5b6000819050919050565b610f1981610f06565b8114610f2457600080fd5b50565b600081359050610f3681610f10565b92915050565b600060208284031215610f5257610f51610f01565b5b6000610f6084828501610f27565b91505092915050565b600073ffffffffffffffffffffffffffffffffffffffff82169050919050565b6000610f9482610f69565b9050919050565b610fa481610f89565b8114610faf57600080fd5b50565b600081359050610fc181610f9b565b92915050565b60008060008060808587031215610fe157610fe0610f01565b5b6000610fef87828801610fb2565b945050602061100087828801610fb2565b935050604061101187828801610f27565b925050606061102287828801610f27565b91505092959194509250565b61103781610f06565b82525050565b6000602082019050611052600083018461102e565b92915050565b61106181610f89565b82525050565b60008115159050919050565b61107c81611067565b82525050565b600060e082019050611097600083018a611058565b6110a46020830189611058565b6110b16040830188611058565b6110be606083018761102e565b6110cb608083018661102e565b6110d860a0830185611073565b6110e560c0830184611073565b98975050505050505050565b7f4e487b7100000000000000000000000000000000000000000000000000000000600052603260045260246000fd5b600082825260208201905092915050565b7f496e76616c696420726566756e64000000000000000000000000000000000000600082015250565b6000611167600e83611120565b915061117282611131565b602082019050919050565b600060208201905081810360008301526111968161115a565b9050919050565b7f4f6e6c792061726269747261746f722063616e20636f6d706c65746500000000600082015250565b60006111d3601c83611120565b91506111de8261119d565b602082019050919050565b60006020820190508181036000830152611202816111c6565b9050919050565b7f426f6220686173206e6f74207061696400000000000000000000000000000000600082015250565b600061123f601083611120565b915061124a82611209565b602082019050919050565b6000602082019050818103600083015261126e81611232565b9050919050565b7f416c69636520686173206e6f7420706169640000000000000000000000000000600082015250565b60006112ab601283611120565b91506112b682611275565b602082019050919050565b600060208201905081810360008301526112da8161129e565b9050919050565b7f73616d6520627579657220616e642073656c6c65720000000000000000000000600082015250565b6000611317601583611120565b9150611322826112e1565b602082019050919050565b600060208201905081810360008301526113468161130a565b9050919050565b7f4e487b7100000000000000000000000000000000000000000000000000000000600052601160045260246000fd5b600061138782610f06565b915061139283610f06565b92508282039050818111156113aa576113a961134d565b5b92915050565b7f426f6220686173206e6f742070616964207768617420416c696365206578706560008201527f6374656400000000000000000000000000000000000000000000000000000000602082015250565b600061140c602483611120565b9150611417826113b0565b604082019050919050565b6000602082019050818103600083015261143b816113ff565b9050919050565b7f416c69636520686173206e6f742070616964207768617420426f62206578706560008201527f6374656400000000000000000000000000000000000000000000000000000000602082015250565b600061149e602483611120565b91506114a982611442565b604082019050919050565b600060208201905081810360008301526114cd81611491565b905091905056fea2646970667358221220494297b67f4324336dce698934610b293ed5c41ec8dc70291ab673874b0f210764736f6c63430008180033",
  "linkReferences": {},
  "deployedLinkReferences": {}
}